:1000000012C02CC02BC02AC029C028C027C026C0BF
:1000100025C024C023C022C021C020C01FC01EC0D4
:100020001DC01CC01BC011241FBECFE5D4E0DEBF25
:10003000CDBF11E0A0E6B0E0E0E4FFE102C0059032
:100040000D92A230B107D9F721E0A2E0B1E001C0E2
:100050001D92A330B207E1F736D170CFD1CFE0E6E1
:10006000F0E021E080E0919192BB9AE19A95F1F75E
:1000700000C090B3907F903E71F090B3907F903D20
:1000800019F481E0820F08C090B3907F903B21F477
:1000900082E0820F01C0822F2D5F2D3021F708955D
:1000A000CF92DF92EF92FF92CF93DF93EC016A0140
:1000B0007B01CB01BA01EDDC9B01772324F42227DD
:1000C0003327261B370B39832883072E000C880B18
:1000D000990B12DD9B01AC01C701B60171DC20E078
:1000E00030E040E251E4B8DDD4DC9B01772324F416
:1000F00022273327261B370B3B832A83DF91CF919F
:10010000FF90EF90DF90CF900895CF92DF92EF9223
:10011000FF920F931F93CF93DF93C22ED32EE42E23
:10012000F52E062F172FD82FC92FB9DA84E45DDA00
:100130002FE78FE492E1215080409040E1F700C02A
:1001400000002C2D3D2D4E2D5F2D602F712F8D2FFA
:100150009C2FA5DA8EEB49DA91DAC82F8FDA682F57
:1001600070E0762F66276C0F711D072E000C880B30
:10017000990BC2DC20E030E040E85DE36DDDDF910B
:10018000CF911F910F91FF90EF90DF90CF90089546
:1001900094B3936094BB94B39C6394BB662311F0B7
:1001A000A89A01C0A898A99A95B3937C95BB83FDA2
:1001B000AD9A82FDAC9A81FDAB9A80FDAA9A8DE042
:1001C0008A95F1F70000A9980895CF93DF93C82F7F
:1001D000D62F82958F70DCDF6D2F8C2FD9DFDF91CA
:1001E000CF9108958FEC97E00197F1F700C00000E0
:1001F00060E082E0CDDF8FEC97E00197F1F700C07F
:10020000000060E088E2E1DF8FEC97E00197F1F712
:1002100000C0000060E081E0D8DF8FEC97E001973C
:10022000F1F700C0000060E086E0CFDF8FEC97E0E0
:100230000197F1F700C0000060E08CE0C6DF089590
:10024000EFECF7E03197F1F700C0000060E08C6060
:10025000BCDF0895EFECF7E03197F1F700C0000044
:1002600060E08860B2DF08958FEC97E00197F1F7C6
:1002700000C0000060E081E0A8DF0895EFECF7E047
:100280003197F1F700C00000F0E48F9F600D11245A
:10029000862F60E0806899DF0895CF93DF93FC019B
:1002A0002081222369F0EC018FEC97E00197F1F7B0
:1002B00000C0000061E0899188DF88818111F4CF5E
:1002C000DF91CF910895CF93DF93CDB7DEB7CA58B2
:1002D000D1090FB6F894DEBF0FBECDBF81B38F60DA
:1002E00081BB8F9880EF82BB2AE12A95F1F700C08D
:1002F000B99ABB9ABC9ABD9ABE9ABF9AE199FECFB1
:1003000080E090E0F1DDEE966CAF7DAF8EAF9FAFF9
:10031000EE97673E73408105910550F087EE93E0BC
:10032000A0E0B0E0EE968CAF9DAFAEAFBFAFEE9762
:10033000E199FECF84E090E0D7DDEF966FAFEF97C5
:10034000633620F093E6EF969FAFEF97E199FECFEB
:1003500088E090E0C9DD9B01AC012F5F3F4F4F4F1C
:100360005F4FCF57DF4F288339834A835B83C15860
:10037000D040273E33404105510560F027EE33E081
:1003800040E050E0CF57DF4F288339834A835B83B7
:10039000C158D040E199FECFCF57DF4F48815981F6
:1003A0006A817B81C158D04088E090E0AFDD1A823D
:1003B0001982FE01339684E0DF011D928A95E9F7E8
:1003C0001A8A198A8EE07096DF01282F1D922A95CD
:1003D000E9F71AA219A27096DF01282F1D922A951B
:1003E000E9F71AAA19AA7096DF01282F1D922A95FB
:1003F000E9F723961FAE1EAE23977096DF011D927C
:100400008A95E9F763961FAE1EAE639765961FAE99
:100410001EAE659767961FAE1EAE679769961FAEB4
:100420001EAE69976B961FAE1EAE6B976C961FAE95
:100430006C97AC961FAE1EAEAC97E12CF12CCB574F
:10044000DF4F19821882C558D040E6961FAE1EAE07
:10045000E697CC24CA94DC2C5E01B7E0AB0EB11C4D
:10046000C158DF4F1882CF57D040C058DF4F188295
:10047000C058D040F697AA96FFAFEEAFAA97F0E02B
:10048000C957DF4FF883C758D04020E0C857DF4F27
:100490002883C858D040C757DF4FF883C958D04089
:1004A000C657DF4F2883CA58D040A9962FACA997CA
:1004B000AA963FACAA979B2C822C2A2C732CC79807
:1004C000E6964EAD5FADE697452B09F08AC7C69814
:1004D000C49A8FE59AEE0197F1F700C00000CB5760
:1004E000DF4FA881B981C558D040AB2B09F088C136
:1004F000EDB7FEB7E896FFAFEEAFE89773DE8FE19A
:100500009EE40197F1F700C0000080E099DEAFE1C2
:10051000BEE41197F1F700C0000084E09BDEEFE13C
:10052000FEE43197F1F700C0000088E0A6968FAF97
:10053000A6972DB73EB7205431090FB6F8943EBFA9
:100540000FBE2DBF0DB71EB70F5F1F4F82E092D7B2
:10055000BE016B597F4FC801BFD98FE59AEE019755
:10056000F1F700C000004AE0BE016B5A7F4FEC96E5
:100570008EAD9FADEC9787DC4AE0BE01675A7F4F96
:10058000EF96AFADEF978A2F90E07DDC4AE0BE0199
:100590006F5A7F4FCF57DF4F88819981C158D04024
:1005A00072DCAE961FAE1EAEAE972E01B1E14B0EC1
:1005B000511CFE01B196A896FFAFEEAFA897EA9640
:1005C000FFAEEEAEEA97392CF72C782CAD966FACD7
:1005D000AD97611007C065E081E050DE84E690E0F1
:1005E0005CDE13C0F1E06F1207C065E081E046DE1B
:1005F0008CE690E052DE09C022E0621206C065E09F
:1006000081E03CDE84E690E048DE6B968FAD6B9730
:10061000811107C06FE032DECE01875A9F4F3DDE69
:1006200007C06EE080E02ADECE01875A9F4F35DE9C
:1006300065E080E023DE84E790E02FDE60E081E08B
:100640001DDECE018B5A9F4F28DE60E080E016DE73
:10065000CE018F5A9F4F21DED8012C9111963C91EB
:10066000119712964C91129713965C9113971496CA
:100670006C91149715967C91159716968C911697F8
:1006800017969C91085F1F4F40DDE4966CAF7DAFDD
:100690008EAF9FAFE4974AE0BE01645A7F4FAE969B
:1006A0008EAD9FADAE97AFDBE4964CAD5DAD6EAD5C
:1006B0007FADE497CE018F599F4FF2DCA3968EACAD
:1006C0009FACA3978114910439F4A5968EAD9FAD8C
:1006D000A597892B09F470C080E1F20111928A95E7
:1006E000E9F720E030E0A901E4966CAD7DAD8EAD78
:1006F0009FADE497CAD9882364F4A896EEADFFAD08
:10070000A89701900020E9F731972DE230E031837E
:1007100020834AE0BE01645A7F4FC40174DBBE01EE
:10072000645A7F4FC20164DBF20101900020E9F7B7
:1007300031974EE250E0518340834AE0BE01645A53
:100740007F4FA5968EAD9FADA5975DDBBE01645A28
:100750007F4FC2014DDBF20101900020E9F7319794
:1007600087E293E491838083A0E2B0E0B383A28325
:10077000611005C0B201CE0181963ADB10C0B1E034
:100780006B1205C0B201CE01C19632DB08C0E2E0B7
:100790006E1205C0B201CE018F5B9F4F29DB8FE344
:1007A0009CE90197F1F700C000005EDDAFE1BEE417
:1007B0001197F1F700C00000AE96EEADFFADAE9719
:1007C0003196AE96FFAFEEAFAE97339709F0FECEFF
:1007D000932C872C7F2CEA96EEACFFACEA97E89638
:1007E0002EAD3FADE8970FB6F8943EBF0FBE2DBFBC
:1007F00041E050E0CB57DF4F59834883C558D04084
:1008000033DD8FE59AEE0197F1F700C00000E29624
:100810001FAE1EAEE29791E0E7969FAFE797612C7F
:10082000E9966FAEE997392C582C472C69E080E0A7
:1008300025DDCE01819631DD69E081E01FDDCE014D
:10084000C1962BDD22968FAD2297811106C060E004
:1008500015DD8BE790E021DD07C060E080E00EDD74
:10086000CE018F5B9F4F19DD60E081E007DD81E8FD
:1008700090E013DDCE01019695DA3B014C0161E079
:1008800081E0FCDCCE01019608DDAFEFCA16DA0686
:1008900039F461E081E0F2DC83E890E0FEDC30C016
:1008A000C114D10439F462E081E0E8DC84E890E02E
:1008B000F4DC26C0B1E0CB16D10439F463E081E06A
:1008C000DDDC85E890E0E9DC1BC0E2E0CE16D10477
:1008D00039F464E081E0D2DC86E890E0DEDC10C030
:1008E000F3E0CF16D10461F42FEF30E742E021505E
:1008F00030404040E1F700C00000EE24E394F12CCA
:100900008981882391F08A81882349F08B8188230B
:1009100049F08C818111A8C003E010E010C001E013
:1009200010E00DC002E010E00AC0C158DF4F08819E
:10093000CF57D040C058DF4F1881C058D0408FDB10
:100940008B3061F48CDB8B30E9F3FE01E00FF11F9B
:1009500080E381835FEFC51AD50A86C080DB8130D2
:1009600061F47DDB8130E9F3FE01E00FF11F81E3EB
:1009700081838FEFC81AD80A77C071DB823061F4A7
:100980006EDB8230E9F3FE01E00FF11F82E3818329
:100990009FEFC91AD90A68C062DB833061F45FDB5C
:1009A0008330E9F3FE01E00FF11F83E38183AFEFB2
:1009B000CA1ADA0A59C053DB843061F450DB843040
:1009C000E9F3FE01E00FF11F84E38183BFEFCB1A4F
:1009D000DB0A4AC044DB853061F441DB8530E9F352
:1009E000FE01E00FF11F85E38183EFEFCE1ADE0AEF
:1009F0003BC035DB863061F432DB8630E9F3FE0143
:100A0000E00FF11F86E38183FFEFCF1ADF0A2CC0CE
:100A100026DB873061F423DB8730E9F3FE01E00F4A
:100A2000F11F87E381832FEFC21AD20A1DC017DBA3
:100A3000883061F414DB8830E9F3FE01E00FF11F28
:100A400088E381833FEFC31AD30A0EC008DB8930E5
:100A500059F405DB8930E9F3FE01E00FF11F89E36A
:100A600081834FEFC41AD40A51E0E516F10409F06E
:100A7000F5C38C81882309F4F1C3E199FECF8CE0A2
:100A800090E032DA9301770C440B550BE0962CAFD3
:100A90003DAF4EAF5FAFE0976217730784079507CE
:100AA00009F03AC3EF963FADEF973F5FEF963FAF48
:100AB000EF97E199FECFEF968FADEF97482F50E07B
:100AC00060E070E084E090E021DACEDBAFE5BAEEE2
:100AD0001197F1F700C00000AC961FAE1EAEAC97A8
:100AE00086E0F50111928A95E9F760E080E0C6DBC7
:100AF00088E890E0D2DB60E081E0C0DB8FE890E046
:100B0000CCDBADDA8C3009F013C2A9DA8C30E9F312
:100B1000ABDB8FE59AEE0197F1F700C000000CEB1C
:100B200012E0CC24CA94DD24DA9466E080E0A6DBEF
:100B300080EA90E0B2DB60E081E0A0DB89EA90E04F
:100B4000ACDB60E080E09ADB81E890E0A6DB822D00
:100B5000932D28D93B014C0161E080E08FDB822D91
:100B6000932D9BDB8F818823D9F08885882361F0C2
:100B70008985882381F08A858111B1C00F2EF3E029
:100B8000EF2EF02DF12C16C0E796EFACE797E99623
:100B9000FFACE9970FC06894EE24E1F8F12C0AC08D
:100BA000C757DF4FE880C958D040C657DF4FF8809D
:100BB000CA58D04054DA8B3061F451DA8B30E9F303
:100BC000F501EE0DFF1D90E39083AFEFCA1ADA0A2C
:100BD00086C045DA813061F442DA8130E9F3F5010B
:100BE000EE0DFF1DB1E3B083EFEFCE1ADE0A77C042
:100BF00036DA823061F433DA8230E9F3F501EE0D52
:100C0000FF1D22E320833FEFC31AD30A68C027DA0F
:100C1000833061F424DA8330E9F3F501EE0DFF1D32
:100C200043E340835FEFC51AD50A59C018DA843010
:100C300061F415DA8430E9F3F501EE0DFF1D84E36C
:100C400080839FEFC91AD90A4AC009DA853061F456
:100C500006DA8530E9F3F501EE0DFF1DA5E3A0836B
:100C6000BFEFCB1ADB0A3BC0FAD9863061F4F7D963
:100C70008630E9F3F501EE0DFF1D26E320833FEFFB
:100C8000C31AD30A2CC0EBD9873061F4E8D9873076
:100C9000E9F3F501EE0DFF1D47E340835FEFC51A51
:100CA000D50A1DC0DCD9883061F4D9D98830E9F380
:100CB000F501EE0DFF1D88E380838FEFC81AD80A77
:100CC0000EC0CDD9893059F4CAD98930E9F3F5017C
:100CD000EE0DFF1D89E380839FEFC91AD90ABFD9A2
:100CE0008A3061F5BCD98A30E9F38A85882331F1ED
:100CF000E199FECFB401A3018CE090E007D9B4DA0A
:100D0000AFE5BAEE1197F1F700C0000005E610E07C
:100D100065E081E0B3DA88EB90E0BFDAC59AEFE5F1
:100D2000FAEE3197F1F700C000000150110981F788
:100D3000C598AC961FAE1EAEAC97F3C090D981306B
:100D400009F061C08CD98C30E9F38A85882309F4D5
:100D50005AC0C12CD12C76016894C4F8E199FECF19
:100D6000C601C2D86616770688069906D9F51C2DE5
:100D7000E199FECF6FEF812F90E0BBD881E0810F2A
:100D8000E199FECF6FEF90E0B4D882E0810FE19956
:100D9000FECF6FEF90E0ADD883E0810FE199FECFF9
:100DA0006FEF90E0A6D860DA8FE59AEE0197F1F741
:100DB00000C0000005E610E064E081E05FDA80EC4E
:100DC00090E06BDAC59AAFE5BAEE1197F1F700C083
:100DD00000000150110981F7C598AC961FAE1EAEF8
:100DE000AC979FC0B4E0CB0ED11CE11CF11CE4E831
:100DF000CE16D104E104F10409F0B0CFAC961FAED9
:100E00001EAEAC978EC02BD98B3009F058C027D9B5
:100E10008A30E9F38A85882309F451C000E110E0A3
:100E2000E199FECFC80160D8661677068806990654
:100E300009F473C00C5F1F4F0438110589F7C12CEA
:100E4000D12C76016894C4F8E199FECFC60144D84C
:100E50008F3F29F5E199FECFB401A301C60156D811
:100E600003DA8FE59AEE0197F1F700C0000005E67E
:100E700010E065E081E002DA88EC90E00EDAC59AD5
:100E8000AFE5BAEE1197F1F700C00000015011096B
:100E900081F7C598AC961FAE1EAEAC9742C0B4E0C9
:100EA000CB0ED11CE11CF11CE4E8CE16D104E10408
:100EB000F10451F6AC961FAE1EAEAC9732C0CFD83F
:100EC0008C3001F5CCD88C30E9F3F501EC0DFD1D2B
:100ED0001082F1E0CF1AD108C69A8FE59AEE0197F9
:100EE000F1F700C00000C69AAFE5BAEE1197F1F72E
:100EF00000C00000C698B8D9EFE5FAEE3197F1F7D7
:100F000000C000008FE19EE40197F1F700C00000EF
:100F10000150110909F009CE04C0AC961FAE1EAEF7
:100F2000AC97A2D9AFE5BAEE1197F1F700C0000077
:100F300096D88A3009F0D5C092D88A30E9F36894FF
:100F4000EE24E4F8F12CC957DF4F8880C758D04011
:100F5000C857DF4F9880C858D040C12CD12C0F2ED5
:100F6000F6E07F2EF02D6894662462F8F501272DB7
:100F700011922A95E9F7AA96AEADBFADAA97E62DD4
:100F80001D92EA95E9F7E199FECF0E2D1F2DC701BD
:100F9000A3D78F3F09F45EC0FFEFCF1ADF0AE199B4
:100FA000FECF802F912FA0D72AE0422D532D4AD774
:100FB000C601A0E0B0E02AE0452D542DBC01CD01D2
:100FC00041D752D98FE59AEE0197F1F700C00000A2
:100FD00091E08916910409F43DC00CEB12E060E049
:100FE00080E04CD98EEC90E058D963E080E046D99F
:100FF000852D942D52D9672D80E040D982ED90E067
:101000004CD960E081E03AD989ED90E046D9672D6E
:1010100081E034D9822D932D40D921D88A3021F412
:101020001ED88A30E9F316C01AD88C3051F417D87C
:101030008C30E9F3E7968FACE797E9969FACE99798
:1010400009C0AFE5BAEE1197F1F700C000000150FA
:10105000110929F6B4E0EB0EF11CE4E8EE16F104F8
:1010600009F084CF01D98FE59AEE0197F1F700C01E
:10107000000009EC10E04AE0652D742DC601C3D6CE
:1010800060E080E0FBD88FED90E007D967E080E07A
:10109000F5D8852D942D01D96BE080E0EFD885EE51
:1010A00090E0FBD8C59AAFE5BAEE1197F1F700C012
:1010B000000001501109F9F6C598D6D8EFE5FAEE0F
:1010C0003197F1F700C000008FE59AEE0197F1F734
:1010D00000C00000A1E0B0E0AC96BFAFAEAFAC97EF
:1010E000FFCCEFE5FAEE3197F1F700C00000AC96C7
:1010F0002EAD3FADAC972F5F3F4FAC963FAF2EAFBD
:10110000AC97283C310508F4EBCC31E0AB963FAF0F
:10111000AB97AC961FAEAC9700E110E0E199FECF23
:10112000C801E2D6E0962CAD3DAD4EAD5FADE09787
:10113000261737074807590709F051C0932C852C0B
:10114000742CEE968CAD9DADAEADBFADEE97019615
:10115000A11DB11DEE968CAF9DAFAEAFBFAFEE97A8
:10116000E199FECFEE964CAD5DAD6EAD7FADEE97E5
:1011700080E090E0CBD678D8AFE5BAEE1197F1F7E2
:1011800000C0000009EC10E0C39A64E081E076D86A
:101190008BEE90E082D8C59AEFE5FAEE3197F1F741
:1011A00000C000000150110979F786E0FE01319678
:1011B000DF01282F1D922A95E9F7C398C598DF0112
:1011C0001D928A95E9F7E2E0F0E0AC96FFAFEEAF52
:1011D000AC97E12CF12CCC24CA94DC2C3CC10C5FE4
:1011E0001F4F0438110509F099CFFE01319686E0B2
:1011F000DF011D928A95E9F7AC96EEADFFADAC9795
:10120000E230F10518F03297A9F41DC1C158DF4F43
:10121000F881CF57D040AB96FFAFAB97C058DF4FA8
:101220002881C058D040AC962FAFAC97E2961FAE45
:101230001EAEE29719D88FE59AEE0197F1F700C03C
:101240000000C158DF4FE880CF57D040C058DF4F73
:10125000F880C058D040CC24CA94DC2C00D78C3005
:1012600019F5FDD68C30E9F389818823E9F0FE0178
:10127000EC0DFD1D118291E0C91AD108C69AAFE5A7
:10128000BAEE1197F1F700C00000C69AEFE5FAEE4A
:101290003197F1F700C00000C698E6D78FE59AEEC7
:1012A0000197F1F700C00000B19B84C0B19B0DC055
:1012B00000E010E00F5F1F4FAFE5BAEE1197F1F7B6
:1012C00000C00000B199F6CF02C000E010E0023388
:1012D000110540F4E199FECF40E050E0BA0184E00E
:1012E00090E014D6C801C2978A3F9105C0F4E199F5
:1012F000FECF40E050E0BA01C158DF4F8881CF57A0
:10130000D040C058DF4F9881C058D040FFD5E199F8
:10131000FECF40E050E0BA0188E090E0F7D5C80188
:101320008C529140883C910508F09FC0E199FECF16
:1013300047E554E060E070E08CE090E0E7D595C0D0
:1013400000E110E0E199FECF6FEFC801D2D50F5F49
:101350001F4F01381105B1F787D7EFE5FAEE319746
:10136000F1F700C0000009EC10E062E081E086D7F0
:1013700084EF90E092D7C59A8FE59AEE0197F1F746
:1013800000C000000150110981F7C5986DD7AFE585
:10139000BAEE1197F1F700C00000EFE1FEE43197DB
:1013A000F1F700C0000021E030E0E2963FAF2EAF41
:1013B000E2973CCA8FE19EE40197F1F700C000007C
:1013C000E296AEADBFADE2971196E296BFAFAEAF7B
:1013D000E297AC3BB24008F429CA932C852C742CBC
:1013E0003AC0E6962EAD3FADE697121613069CF571
:1013F00021303105D1F4C4988FE59AEE0197F1F7C9
:1014000000C000008CE291E0C79AAFE1BEE4119702
:10141000F1F700C000000197B9F7C69AEFE1FEE4CA
:101420003197F1F700C0000016C0E6962EAD3FAD33
:10143000E6972436310579F442E050E0E6965FAF56
:101440004EAFE69708C0932C852C742CE12CF12C20
:10145000CC24CA94DC2CE6968EAD9FADE69701961F
:10146000E6969FAF8EAFE6972AC8043F114008F476
:1014700073CF66CF8093020148B321E030E0B90119
:1014800002C0660F771F8A95E2F7CB01842B88BBD9
:1014900087B30090020102C0220F331F0A94E2F7C3
:1014A000282B27BB089598B321E030E0A9010090D4
:1014B000020102C0440F551F0A94E2F7842F809561
:1014C000892388BB47B3C9010090020102C0880F7D
:1014D000991F0A94E2F7842B87BB8FEB93E0019767
:1014E000F1F700C0000097B3A9010090020102C00B
:1014F000440F551F0A94E2F7842F8095892387BBF8
:1015000090EA9A95F1F786B30090020102C0220F8B
:10151000331F0A94E2F78223E3E3F3E03197F1F714
:1015200000C00000089580FF30C0F89438B381E017
:1015300090E0AC010090020102C0440F551F0A94D4
:10154000E2F7242F2095232328BB47B39C0100906A
:10155000020102C0220F331F0A94E2F7242B27BB9B
:101560002AE12A95F1F700C0789427B30090020190
:1015700002C0880F991F0A94E2F78095822387BBE7
:1015800082E98A95F1F700C00895F89438B381E0B4
:1015900090E0AC010090020102C0440F551F0A9474
:1015A000E2F7242F2095232328BB47B39C0100900A
:1015B000020102C0220F331F0A94E2F7242B27BB3B
:1015C0002DEA2A95F1F7000027B30090020102C02E
:1015D000880F991F0A94E2F78095822387BB78943D
:1015E0008DE08A95F1F700000895CF93DF93D82F0F
:1015F000C8E08D2F817097DFD695C150D1F7DF916C
:10160000CF910895F89438B381E090E0AC01009058
:10161000020102C0440F551F0A94E2F7242F2095BF
:10162000232328BB47B39C010090020102C0220F74
:10163000331F0A94E2F7242B27BB28E02A95F1F701
:1016400027B30090020102C0880F991F0A94E2F7A5
:101650008095822387BB8AE18A95F1F700C086B323
:1016600090E00090020102C0959587950A94E2F7F8
:101670008170789498E79A95F1F70895CF93DF9366
:10168000D8E0C0E0BFDF20E8829FC0011124C695EA
:10169000C82BD150B9F78C2FDF91CF910895BF920D
:1016A000CF92DF92EF92FF920F931F93CF93DF932E
:1016B000C22FE32EF42E052F162FD72FB82EC92EAA
:1016C000F2DE85E592DF6894DD24D6F88C2F8170F8
:1016D0002ADF2C2F3E2D4F2D502F612F7D2F8B2D4C
:1016E0009C2D01E037D3C22FE32EF42E052F162FA9
:1016F000D72FB82EC92EDA94D110E8CFDF91CF9131
:101700001F910F91FF90EF90DF90CF90BF900895C1
:101710009F92AF92BF92CF92DF92EF92FF920F9380
:101720001F93CF93DF93922EA32EB42EC52ED62EC9
:10173000E72EF82E192FD02FA0E0B0E0F0E0E0E087
:10174000CCE8292D3A2D4B2D5C2D6D2D7E2D8F2D26
:10175000912F0A2FFFD288E090E0322F3E27E695A6
:10176000269530FDEC270197C1F7FF5F1896FD170E
:1017700040F38E2FDF91CF911F910F91FF90EF904B
:10178000DF90CF90BF90AF909F9008952F923F929F
:101790004F925F926F927F928F929F92AF92BF9281
:1017A000CF92DF92EF92FF920F931F93CF93DF932D
:1017B000CDB7DEB729970FB6F894DEBF0FBECDBF09
:1017C00029833A834B835C836D837E83382E9F838A
:1017D000580169DE80EF09DFE12CF12C412C81E01A
:1017E000512C612C712C812C912CC12CD12C10E00E
:1017F00022242394898706DF888704DF9885913027
:1018000019F4813001F547C0E885E1111CC0811150
:101810001AC0F5018081F9858F1781F08F1780F04C
:1018200029813A814B815C816D817E81832D9F81ED
:101830000E2D90D220FD06C04F2E05C0288603C075
:10184000498401C02886288530E040E050E060E00F
:1018500070E080E090E00E2D62D2522A632A742A52
:10186000852A962AC72AD82A192B88855CDE89857D
:101870008F5F89879FEFE91AF90A813409F0BBCF9E
:10188000F5014082252D362D472D582D692D7C2DB3
:101890008D2D912F08C021E030E040E050E060E065
:1018A00070E080E090E029960FB6F894DEBF0FBE9E
:1018B000CDBFDF91CF911F910F91FF90EF90DF90FF
:1018C000CF90BF90AF909F908F907F906F905F90E0
:1018D0004F903F902F9008952F923F924F925F929A
:1018E0006F927F928F929F92AF92BF92CF92DF9230
:1018F000EF92FF920F931F93CF93DF931F92CDB779
:10190000DEB74C015B011982312C212C412C512C6A
:10191000612C712CC12CD12CE12CF12C01C0212C7B
:101920008E010F5F1F4F242D352D462D572D6C2D09
:101930007D2D8E2D9F2D2ADF422E532E642E752E47
:10194000C62ED72EE82EF92EA1E020D2B1F008E065
:10195000DFDE811110C0F40188E0389EE00DF11D3A
:1019600011244082518262827382C482D582E682CF
:10197000F782339408C0239401C02394E3E0E21576
:1019800058F02110CDCF8981882321F0F501808185
:10199000381628F2F50130820F90DF91CF911F9118
:1019A0000F91FF90EF90DF90CF90BF90AF909F90FE
:1019B0008F907F906F905F904F903F902F90089501
:1019C0005058BB27AA270ED00DC1FED030F003D14E
:1019D00020F031F49F3F11F41EF4F3C00EF4E095B3
:1019E000E7FBE9C0E92F0FD180F3BA17620773074D
:1019F0008407950718F071F49EF527C10EF4E09561
:101A00000B2EBA2FA02D0B01B90190010C01CA01B8
:101A1000A0011124FF27591B99F0593F50F4503E63
:101A200068F11A16F040A22F232F342F4427585F55
:101A3000F3CF469537952795A795F0405395C9F76D
:101A40007EF41F16BA0B620B730B840BBAF0915025
:101A5000A1F0FF0FBB1F661F771F881FC2F70EC0C4
:101A6000BA0F621F731F841F48F487957795679597
:101A7000B795F7959E3F08F0B3CF9395880F08F080
:101A80009927EE0F97958795089571D008F481E016
:101A9000089504D06894B111D9C00895BCD088F0DD
:101AA0009F5790F0B92F9927B751A0F0D1F0660F4A
:101AB000771F881F991F1AF0BA95C9F712C0B13065
:101AC00081F0C3D0B1E00895C0C0672F782F882778
:101AD000B85F39F0B93FCCF3869577956795B395A4
:101AE000D9F73EF490958095709561957F4F8F4F13
:101AF0009F4F0895E89409C097FB3EF49095809518
:101B0000709561957F4F8F4F9F4F9923A9F0F92FC3
:101B100096E9BB279395F695879577956795B79541
:101B2000F111F8CFFAF4BB0F11F460FF1BC06F5F27
:101B30007F4F8F4F9F4F16C0882311F096E911C039
:101B4000772321F09EE8872F762F05C0662371F05A
:101B500096E8862F70E060E02AF09A95660F771F6E
:101B6000881FDAF7880F9695879597F90895990F4A
:101B70000008550FAA0BE0E8FEEF16161706E80757
:101B8000F907C0F012161306E407F50798F0621B78
:101B9000730B840B950B39F40A2661F0232B242B4D
:101BA000252B21F408950A2609F4A140A6958FEF6C
:101BB000811D811D089597F99F6780E870E060E0BE
:101BC00008959FEF80EC089500240A9416161706D6
:101BD00018060906089500240A941216130614061E
:101BE00005060895092E0394000C11F4882352F081
:101BF000BB0F40F4BF2B11F460FF04C06F5F7F4F39
:101C00008F4F9F4F089557FD9058440F551F59F01F
:101C10005F3F71F04795880F97FB991F61F09F3FD9
:101C200079F087950895121613061406551FF2CF02
:101C30004695F1DF08C0161617061806991FF1CF52
:101C400086957105610508940895E894BB27662779
:101C50007727CB0197F908950BD0C4CFB5DF28F0D3
:101C6000BADF18F0952309F0A6CFABCF1124EECF41
:101C7000CADFA0F3959FD1F3950F50E0551F629FE7
:101C8000F001729FBB27F00DB11D639FAA27F00DD5
:101C9000B11DAA1F649F6627B00DA11D661F829FFC
:101CA0002227B00DA11D621F739FB00DA11D621FE1
:101CB000839FA00D611D221F749F3327A00D611DFE
:101CC000231F849F600D211D822F762F6A2F1124E0
:101CD0009F5750408AF0E1F088234AF0EE0FFF1F33
:101CE000BB1F661F771F881F91505040A9F79E3F6A
:101CF000510570F060CFAACF5F3FECF3983EDCF364
:101D0000869577956795B795F795E7959F5FC1F7A6
:101D1000FE2B880F911D9695879597F908950F933F
:101D2000083090F0982F872F762F652F542F432F50
:101D3000322F22270850F4CF220F331F441F551F84
:101D4000661F771F881F991F0A95B2F70F91089594
:101D500097FB10F8169400080F93083098F008507D
:101D6000232F342F452F562F672F782F892F902D13
:101D7000F4CF0594979587957795679557954795EF
:101D8000379527950A95AAF70F9108950024A7FD86
:101D900000942A1730054005500560057005800540
:101DA000900508951F93FC0199278827BC01E894AA
:101DB00011911032E9F3193010F01E30C8F31B32C4
:101DC00049F01D3241F4689405C027D0610F711DA0
:101DD000811D911D119110531A30B8F33EF4909566
:101DE0008095709561957F4F8F4F9F4F1F910895FC
:101DF000FB01DC010D900020E9F7119701900D9295
:101E00000020E1F70895BB274A3031F4992322F4EA
:101E1000BDE2909581959F4F37C0592F482F372F9E
:101E2000262F660F771F881F991F660F771F881F41
:101E3000991F620F731F841F951F660F771F881FDE
:101E4000991F0895BB27FA01A62F62177105810516
:101E50009105330B30FB66F0AA27660F771F881FAA
:101E6000991FAA1FA21710F0A21B63953850A9F75B
:101E7000A05DAA3308F0A95DA19336F7B111B19323
:101E80001082CA0119C0BB27FB015527AA27880F5A
:101E9000991FAA1FA41710F0A41B83955051B9F7DE
:101EA000A05DAA3308F0A95DA193009779F7B1115D
:101EB000B1931192CB0100C0DC01FC01672F71913D
:101EC0007723E1F7329704C07C916D937083629120
:101ED000AE17BF07C8F30895E199FECF9FBB8EBB35
:101EE000E09A99278DB30895A6E1B0E044E050E070
:101EF00017C0262FE199FECF9FBB8EBB2DBB0FB61F
:101F0000F894E29AE19A0FBE01960895242FF2DF29
:101F1000252FF0DF00C0EDDF272FECCFDC01CB0158
:101F2000FC01E199FECF06C0FFBBEEBBE09A319603
:101F30000DB20D9241505040B8F70895F894FFCF7C
:101F4000FEFDFBF72F285E2D5E292F002D285E2D2C
:101F50005E292D0048656C6C6F2100436F64653A03
:101F6000003E002E2E2E2E002A3A4C697374002358
:101F70003A4164642F44656C2F4368616E67650065
:101F80002A3A4368616E676500303A4164642031E3
:101F90003A44656C657465004368616E676564000A
:101FA00044656C65746564004164646564004E6FEB
:101FB0002E002A3A4E65787400436F64652D004602
:101FC0006F756E6400636F64657300556E6C6F634C
:101FD0006B65640056616C7565732072657365741A
:021FE0000000FF
:00000001FF
