:1000000012C02CC02BC02AC029C028C027C026C0BF
:1000100025C024C023C022C021C020C01FC01EC0D4
:100020001DC01CC01BC011241FBECFE5D4E0DEBF25
:10003000CDBF11E0A0E6B0E0E8E2FFE102C005902C
:100040000D92A230B107D9F721E0A2E0B1E001C0E2
:100050001D92A330B207E1F736D164CFD1CFE0E6ED
:10006000F0E021E080E0919192BB9AE19A95F1F75E
:1000700000C090B3907F903E71F090B3907F903D20
:1000800019F481E0820F08C090B3907F903B21F477
:1000900082E0820F01C0822F2D5F2D3021F708955D
:1000A000CF92DF92EF92FF92CF93DF93EC016A0140
:1000B0007B01CB01BA01E1DC9B01772324F42227E9
:1000C0003327261B370B39832883072E000C880B18
:1000D000990B06DD9B01AC01C701B60165DC20E090
:1000E00030E040E251E4ACDDC8DC9B01772324F42E
:1000F00022273327261B370B3B832A83DF91CF919F
:10010000FF90EF90DF90CF900895CF92DF92EF9223
:10011000FF920F931F93CF93DF93C22ED32EE42E23
:10012000F52E062F172FD82FC92FADDA84E451DA18
:100130002FE78FE492E1215080409040E1F700C02A
:1001400000002C2D3D2D4E2D5F2D602F712F8D2FFA
:100150009C2F99DA8EEB3DDA85DAC82F83DA682F87
:1001600070E0762F66276C0F711D072E000C880B30
:10017000990BB6DC20E030E040E85DE361DDDF9123
:10018000CF911F910F91FF90EF90DF90CF90089546
:1001900094B3936094BB94B39C6394BB662311F0B7
:1001A000A89A01C0A898A99A95B3937C95BB83FDA2
:1001B000AD9A82FDAC9A81FDAB9A80FDAA9A8DE042
:1001C0008A95F1F70000A9980895CF93DF93C82F7F
:1001D000D62F82958F70DCDF6D2F8C2FD9DFDF91CA
:1001E000CF9108958FEC97E00197F1F700C00000E0
:1001F00060E082E0CDDF8FEC97E00197F1F700C07F
:10020000000060E088E2E1DF8FEC97E00197F1F712
:1002100000C0000060E081E0D8DF8FEC97E001973C
:10022000F1F700C0000060E086E0CFDF8FEC97E0E0
:100230000197F1F700C0000060E08CE0C6DF089590
:10024000EFECF7E03197F1F700C0000060E08C6060
:10025000BCDF0895EFECF7E03197F1F700C0000044
:1002600060E08860B2DF08958FEC97E00197F1F7C6
:1002700000C0000060E081E0A8DF0895EFECF7E047
:100280003197F1F700C00000F0E48F9F600D11245A
:10029000862F60E0806899DF0895CF93DF93FC019B
:1002A0002081222369F0EC018FEC97E00197F1F7B0
:1002B00000C0000061E0899188DF88818111F4CF5E
:1002C000DF91CF910895CF93DF93CDB7DEB7CD58AF
:1002D000D1090FB6F894DEBF0FBECDBF81B38F60DA
:1002E00081BB8F9880EF82BB2AE12A95F1F700C08D
:1002F000B99ABB9ABC9ABD9ABE9ABF9AE199FECFB1
:1003000080E090E0E5DDEE966CAF7DAF8EAF9FAF05
:10031000EE97673E73408105910550F087EE93E0BC
:10032000A0E0B0E0EE968CAF9DAFAEAFBFAFEE9762
:10033000E199FECF84E090E0CBDDC058DF4F6883C9
:1003400079838A839B83C058D040633671058105C9
:10035000910560F023E630E040E050E0C058DF4F08
:10036000288339834A835B83C058D040E199FECF0C
:1003700088E090E0ADDD9B01AC012F5F3F4F4F4F18
:100380005F4FCC57DF4F288339834A835B83C45840
:10039000D040273E33404105510560F027EE33E061
:1003A00040E050E0CC57DF4F288339834A835B839A
:1003B000C458D040E199FECFCC57DF4F48815981D6
:1003C0006A817B81C458D04088E090E093DD1A8236
:1003D0001982FE01339684E0DF011D928A95E9F7C8
:1003E0001A8A198A8EE07096DF01282F1D922A95AD
:1003F000E9F71AA219A27096DF01282F1D922A95FB
:10040000E9F71AAA19AA7096DF01282F1D922A95DA
:10041000E9F723961FAE1EAE23977096DF011D925B
:100420008A95E9F763961FAE1EAE639765961FAE79
:100430001EAE659767961FAE1EAE679769961FAE94
:100440001EAE69976B961FAE1EAE6B976C961FAE75
:100450006C97E0961FAE1EAEE097E12CF12CC457CE
:10046000DF4F19821882CC58D040C258DF4F198212
:100470001882CE57D040CC24CA94DC2C5E01B7E061
:10048000AB0EB11CE9961FAEE997EA961FAEEA974C
:10049000F697AA96FFAFEEAFAA97F0E0C857DF4FE6
:1004A000F883C858D04020E0C757DF4F2883C95889
:1004B000D040C657DF4FF883CA58D040C557DF4FEA
:1004C0002883CB58D040A9962FACA997AA963FACC9
:1004D000AA979B2C822C2A2C732CC798C258DF4FCA
:1004E00048815981CE57D040452B09F068C7C6983E
:1004F000C49A8FE59AEE0197F1F700C00000C45747
:10050000DF4FA881B981CC58D040AB2B09F089C10D
:10051000EDB7FEB7E696FFAFEEAFE69763DE8FE18D
:100520009EE40197F1F700C0000080E089DEAFE1B2
:10053000BEE41197F1F700C0000084E08BDEEFE12C
:10054000FEE43197F1F700C0000088E0A6968FAF77
:10055000A6972DB73EB7205431090FB6F8943EBF89
:100560000FBE2DBF0DB71EB70F5F1F4F82E076D7AE
:10057000BE016B597F4FC801A3D98FE59AEE019751
:10058000F1F700C000004AE0BE016B5A7F4FEC96C5
:100590008EAD9FADEC976BDC4AE0BE01675A7F4F92
:1005A000C058DF4F88819981C058D04060DC4AE054
:1005B000BE016F5A7F4FCC57DF4F88819981C45855
:1005C000D04055DCAC961FAE1EAEAC972E0191E12B
:1005D000490E511CDE019196A896BFAFAEAFA89709
:1005E000E896FFAEEEAEE897392CF72C782CAB9658
:1005F0006FACAB97611007C065E081E03FDE84E639
:1006000090E04BDE13C0B1E06B1207C065E081E003
:1006100035DE8CE690E041DE09C0E2E06E1206C0F5
:1006200065E081E02BDE84E690E037DE6B968FADEF
:100630006B97811107C06FE021DECE01875A9F4F73
:100640002CDE07C06EE080E019DECE01875A9F4F96
:1006500024DE65E080E012DE84E790E01EDE60E0EC
:1006600081E00CDECE018B5A9F4F17DE60E080E008
:1006700005DECE018F5A9F4F10DED8012C911196C6
:100680003C91119712964C91129713965C91139787
:1006900014966C91149715967C91159716968C91DB
:1006A000169717969C91085F1F4F2FDDE4966CAF4D
:1006B0007DAF8EAF9FAFE4974AE0BE01645A7F4F93
:1006C000AC968EAD9FADAC9792DBE4964CAD5DAD34
:1006D0006EAD7FADE497CE018F599F4FE1DCA396BD
:1006E0008EAC9FACA3978114910439F4A5968EAD7E
:1006F0009FADA597892B09F470C080E1F20111929A
:100700008A95E9F720E030E0A901E4966CAD7DAD73
:100710008EAD9FADE497ADD9882364F4A896EEAD75
:10072000FFADA89701900020E9F731972DE230E066
:10073000318320834AE0BE01645A7F4FC40157DBF6
:10074000BE01645A7F4FC20147DBF20101900020D5
:10075000E9F731974EE250E0518340834AE0BE0111
:10076000645A7F4FA5968EAD9FADA59740DBBE0125
:10077000645A7F4FC20130DBF20101900020E9F79B
:10078000319787E293E491838083A0E2B0E0B38362
:10079000A283611005C0B201CE0181961DDB10C09D
:1007A000B1E06B1205C0B201CE01C19615DB08C0E5
:1007B000E2E06E1205C0B201CE018F5B9F4F0CDBF1
:1007C0008FE39CE90197F1F700C000004DDDAFE138
:1007D000BEE41197F1F700C00000AC96EEADFFAD9E
:1007E000AC973196AC96FFAFEEAFAC97339709F06C
:1007F000FECE932C872C7F2CE896EEACFFACE897CE
:10080000E6962EAD3FADE6970FB6F8943EBF0FBE0D
:100810002DBF41E050E0C457DF4F59834883CC5887
:10082000D04022DD8FE59AEE0197F1F700C000007D
:10083000E2961FAE1EAEE29791E0E5969FAFE59778
:10084000E7961FAEE797322C292C582C472C69E0ED
:1008500080E014DDCE01819620DD69E081E00EDDCF
:10086000CE01C1961ADD22968FAD2297811106C066
:1008700060E004DD8BE790E010DD07C060E080E021
:10088000FDDCCE018F5B9F4F08DD60E081E0F6DC90
:1008900081E890E002DDCE01019678DA3B014C015F
:1008A00061E081E0EBDCCE010196F7DCAFEFCA1628
:1008B000DA0639F461E081E0E1DC83E890E0EDDC28
:1008C00030C0C114D10439F462E081E0D7DC84E89F
:1008D00090E0E3DC26C0B1E0CB16D10439F463E04C
:1008E00081E0CCDC85E890E0D8DC1BC0E2E0CE16ED
:1008F000D10439F464E081E0C1DC86E890E0CDDC2D
:1009000010C0F3E0CF16D10461F42FEF30E742E0DE
:10091000215030404040E1F700C00000EE24E39455
:10092000F12C8981882391F08A81882349F08B8179
:10093000882349F08C818111A4C003E010E00CC031
:1009400001E010E009C002E010E006C0E9960FAD3A
:10095000E997EA961FADEA9782DB8B3061F47FDB83
:100960008B30E9F3FE01E00FF11F80E381835FEF3D
:10097000C51AD50A86C073DB813061F470DB813023
:10098000E9F3FE01E00FF11F81E381838FEFC81AC5
:10099000D80A77C064DB823061F461DB8230E9F32E
:1009A000FE01E00FF11F82E381839FEFC91AD90A8C
:1009B00068C055DB833061F452DB8330E9F3FE011C
:1009C000E00FF11F83E38183AFEFCA1ADA0A59C03F
:1009D00046DB843061F443DB8430E9F3FE01E00F51
:1009E000F11F84E38183BFEFCB1ADB0A4AC037DBF8
:1009F000853061F434DB8530E9F3FE01E00FF11F4F
:100A000085E38183EFEFCE1ADE0A3BC028DB863018
:100A100061F425DB8630E9F3FE01E00FF11F86E388
:100A20008183FFEFCF1ADF0A2CC019DB873061F416
:100A300016DB8730E9F3FE01E00FF11F87E38183C6
:100A40002FEFC21AD20A1DC00ADB883061F407DB1F
:100A50008830E9F3FE01E00FF11F88E381833FEF67
:100A6000C31AD30A0EC0FBDA893059F4F8DA893098
:100A7000E9F3FE01E00FF11F89E381834FEFC41A10
:100A8000D40A51E0E516F10409F0FBC38C818823F8
:100A900009F4F7C3E199FECF8CE090E019DA9301F5
:100AA000770C440B550BAE962CAF3DAF4EAF5FAFFE
:100AB000AE97621773078407950709F047C3C058BC
:100AC000DF4F88819981AA81BB81C058D0400196AF
:100AD000A11DB11DC058DF4F88839983AA83BB83B2
:100AE000C058D040E199FECFC058DF4F48815981AE
:100AF0006A817B81C058D04084E090E0FBD9B4DBB0
:100B0000AFE5BAEE1197F1F700C00000E0961FAE16
:100B10001EAEE09786E0F50111928A95E9F760E054
:100B200080E0ACDB88E890E0B8DB60E081E0A6DB49
:100B30008FE890E0B2DB93DA8C3009F013C28FDAE1
:100B40008C30E9F391DB8FE59AEE0197F1F700C065
:100B500000000CEB12E0CC24CA94DD24DA9466E0A9
:100B600080E08CDB80EA90E098DB60E081E086DB6F
:100B700089EA90E092DB60E080E080DB81E890E051
:100B80008CDB832D922D02D93B014C0161E080E08A
:100B900075DB832D922D81DB8F818823D9F08885A9
:100BA000882361F08985882381F08A858111B1C00D
:100BB0000F2EF3E0EF2EF02DF12C16C0E596EFACE2
:100BC000E597E796FFACE7970FC06894EE24E1F84D
:100BD000F12C0AC0C657DF4FE880CA58D040C5572D
:100BE000DF4FF880CB58D0403ADA8B3061F437DAF7
:100BF0008B30E9F3F501EE0DFF1D90E39083AFEF2D
:100C0000CA1ADA0A86C02BDA813061F428DA813018
:100C1000E9F3F501EE0DFF1DB1E3B083EFEFCE1A5E
:100C2000DE0A77C01CDA823061F419DA8230E9F327
:100C3000F501EE0DFF1D22E320833FEFC31AD30A17
:100C400068C00DDA833061F40ADA8330E9F3F50124
:100C5000EE0DFF1D43E340835FEFC51AD50A59C06F
:100C6000FED9843061F4FBD98430E9F3F501EE0D4F
:100C7000FF1D84E380839FEFC91AD90A4AC0EFD9C8
:100C8000853061F4ECD98530E9F3F501EE0DFF1DF7
:100C9000A5E3A083BFEFCB1ADB0A3BC0E0D98630C7
:100CA00061F4DDD98630E9F3F501EE0DFF1D26E391
:100CB00020833FEFC31AD30A2CC0D1D9873061F407
:100CC000CED98730E9F3F501EE0DFF1D47E34083F0
:100CD0005FEFC51AD50A1DC0C2D9883061F4BFD9EB
:100CE0008830E9F3F501EE0DFF1D88E380838FEF77
:100CF000C81AD80A0EC0B3D9893059F4B0D989308E
:100D0000E9F3F501EE0DFF1D89E380839FEFC91A1A
:100D1000D90AA5D98A3061F5A2D98A30E9F38A8542
:100D2000882331F1E199FECFB401A3018CE090E07A
:100D3000E1D89ADAAFE5BAEE1197F1F700C00000FA
:100D400005E610E065E081E099DA88EB90E0A5DA4D
:100D5000C59AEFE5FAEE3197F1F700C000000150B7
:100D6000110981F7C598E0961FAE1EAEE097F3C05B
:100D700076D9813009F061C072D98C30E9F38A8567
:100D8000882309F45AC0C12CD12C76016894C4F888
:100D9000E199FECFC6019CD86616770688069906AB
:100DA000D9F51C2DE199FECF6FEF812F90E095D8FA
:100DB00081E0810FE199FECF6FEF90E08ED882E065
:100DC000810FE199FECF6FEF90E087D883E0810F2C
:100DD000E199FECF6FEF90E080D846DA8FE59AEE8A
:100DE0000197F1F700C0000005E610E064E081E043
:100DF00045DA80EC90E051DAC59AAFE5BAEE11978A
:100E0000F1F700C000000150110981F7C598E09684
:100E10001FAE1EAEE0979FC0B4E0CB0ED11CE11C0C
:100E2000F11CE4E8CE16D104E104F10409F0B0CFDE
:100E3000E0961FAE1EAEE0978EC011D98B3009F040
:100E400058C00DD98A30E9F38A85882309F451C046
:100E500000E110E0E199FECFC8013AD866167706A6
:100E60008806990609F473C00C5F1F4F04381105FA
:100E700089F7C12CD12C76016894C4F8E199FECF92
:100E8000C6011ED88F3F29F5E199FECFB401A30119
:100E9000C60130D8E9D98FE59AEE0197F1F700C085
:100EA000000005E610E065E081E0E8D988EC90E01C
:100EB000F4D9C59AAFE5BAEE1197F1F700C000007A
:100EC0000150110981F7C598E0961FAE1EAEE0975C
:100ED00042C0B4E0CB0ED11CE11CF11CE4E8CE16FC
:100EE000D104E104F10451F6E0961FAE1EAEE09786
:100EF00032C0B5D88C3001F5B2D88C30E9F3F501A9
:100F0000EC0DFD1D1082F1E0CF1AD108C69A8FE5D5
:100F10009AEE0197F1F700C00000C69AAFE5BAEE6D
:100F20001197F1F700C00000C6989ED9EFE5FAEEE0
:100F30003197F1F700C000008FE19EE40197F1F7CF
:100F400000C000000150110909F009CE04C0E0966C
:100F50001FAE1EAEE09788D9AFE5BAEE1197F1F754
:100F600000C000007CD88A3009F0D5C078D88A301B
:100F7000E9F36894EE24E4F8F12CC857DF4F888039
:100F8000C858D040C757DF4F9880C958D040C12CAF
:100F9000D12C0F2EF6E07F2EF02D6894662462F897
:100FA000F501272D11922A95E9F7AA96AEADBFADAE
:100FB000AA97E62D1D92EA95E9F7E199FECF0E2D4D
:100FC0001F2DC7017DD78F3F09F45EC0FFEFCF1AF9
:100FD000DF0AE199FECF802F912F7AD72AE0432DA7
:100FE000522D24D7C601A0E0B0E02AE0452D542DB3
:100FF000BC01CD011BD738D98FE59AEE0197F1F7E7
:1010000000C0000091E08916910409F43DC00CEB8A
:1010100012E060E080E032D98EEC90E03ED963E0EF
:1010200080E02CD9852D942D38D9672D80E026D9E4
:1010300082ED90E032D960E081E020D989ED90E046
:101040002CD9672D81E01AD9832D922D26D907D866
:101050008A3021F404D88A30E9F316C000D88C30E5
:1010600051F4FDD78C30E9F3E5968FACE597E79620
:101070009FACE79709C0AFE5BAEE1197F1F700C052
:1010800000000150110929F6B4E0EB0EF11CE4E870
:10109000EE16F10409F084CFE7D88FE59AEE0197B8
:1010A000F1F700C0000009EC10E04AE0652D742D56
:1010B000C6019DD660E080E0E1D88FED90E0EDD8EC
:1010C00067E080E0DBD8852D942DE7D86BE080E0E9
:1010D000D5D885EE90E0E1D8C59AAFE5BAEE119784
:1010E000F1F700C0000001501109F9F6C598BCD80D
:1010F000EFE5FAEE3197F1F700C000008FE59AEEC8
:101100000197F1F700C00000A1E0B0E0E096BFAFAA
:10111000AEAFE097FFCCEFE5FAEE3197F1F700C004
:101120000000E0962EAD3FADE0972F5F3F4FE09679
:101130003FAF2EAFE097283C310508F4EBCC31E00F
:10114000AF963FAFAF97E0961FAEE09700E110E09B
:10115000E199FECFC801BCD6AE962CAD3DAD4EADEB
:101160005FADAE97261737074807590709F052C0F9
:10117000922C232C852C742CEE968CAD9DADAEADAF
:10118000BFADEE970196A11DB11DEE968CAF9DAF40
:10119000AEAFBFAFEE97E199FECFEE964CAD5DAD31
:1011A0006EAD7FADEE9780E090E0A4D65DD8AFE560
:1011B000BAEE1197F1F700C0000009EC10E0C39AF5
:1011C00064E081E05BD88BEE90E067D8C59AEFE5EC
:1011D000FAEE3197F1F700C000000150110979F7DC
:1011E00086E0FE013196DF01282F1D922A95E9F74E
:1011F000C398C598DF011D928A95E9F7E2E0F0E017
:10120000E096FFAFEEAFE097E12CF12CCC24CA942E
:10121000DC2C16C10C5F1F4F0438110509F098CF64
:10122000FE01319686E0DF011D928A95E9F7E0968E
:10123000EEADFFADE097E230F10518F0329789F49A
:10124000F6C0E996FFADE997AF96FFAFAF97EA9684
:101250002FADEA97E0962FAFE097E2961FAE1EAE55
:10126000E29702D88FE59AEE0197F1F700C00000EF
:10127000E996EFACE997EA96FFACEA97CC24CA94DA
:10128000DC2CEDD68C3019F5EAD68C30E9F3898167
:101290008823E9F0FE01EC0DFD1D118291E0C91AD1
:1012A000D108C69AAFE5BAEE1197F1F700C0000079
:1012B000C69AEFE5FAEE3197F1F700C00000C69844
:1012C000D3D78FE59AEE0197F1F700C00000B19BEC
:1012D0005EC0B19B2EC000E010E00F5F1F4FAFE576
:1012E000BAEE1197F1F700C00000B199F6CF0115E1
:1012F0001105F9F0E199FECF40E050E0BA0184E039
:1013000090E0F8D503331105A0F0E199FECF40E05D
:1013100050E0BA01E9968FADE997EA969FADEA975A
:10132000E9D5E199FECF40E050E0BA0188E090E0D5
:10133000E1D59AD7EFE5FAEE3197F1F700C000005A
:1013400009EC10E062E081E099D784EF90E0A5D746
:10135000C59A8FE59AEE0197F1F700C000000150A1
:10136000110981F7C59880D7AFE5BAEE1197F1F76B
:1013700000C00000EFE1FEE43197F1F700C000008B
:1013800021E030E0E2963FAF2EAFE29760CA8FE1F6
:101390009EE40197F1F700C00000E296AEADBFAD4C
:1013A000E2971196E296BFAFAEAFE297AC3BB24088
:1013B00008F44DCA922C232C852C742C41C0C258A1
:1013C000DF4F28813981CE57D04012161306C4F55D
:1013D00021303105D1F4C4988FE59AEE0197F1F7E9
:1013E00000C000008CE291E0C79AAFE1BEE4119723
:1013F000F1F700C000000197B9F7C69AEFE1FEE4EB
:101400003197F1F700C000001BC0C258DF4F2881A0
:101410003981CE57D0402436310591F442E050E076
:10142000C258DF4F59834883CE57D04009C0922C11
:10143000232C852C742CE12CF12CCC24CA94DC2C8C
:10144000C258DF4F88819981CE57D0400196C2584B
:10145000DF4F99838883CE57D0403FC880930201E5
:1014600048B321E030E0B90102C0660F771F8A95CA
:10147000E2F7CB01842B88BB87B30090020102C046
:10148000220F331F0A94E2F7282B27BB089598B345
:1014900021E030E0A9010090020102C0440F551F75
:1014A0000A94E2F7842F8095892388BB47B3C9014A
:1014B0000090020102C0880F991F0A94E2F7842B62
:1014C00087BB8FEB93E00197F1F700C0000097B363
:1014D000A9010090020102C0440F551F0A94E2F7CF
:1014E000842F8095892387BB90EA9A95F1F786B37C
:1014F0000090020102C0220F331F0A94E2F78223F8
:10150000E3E3F3E03197F1F700C00000089580FFB6
:1015100030C0F89438B381E090E0AC010090020153
:1015200002C0440F551F0A94E2F7242F209523236D
:1015300028BB47B39C010090020102C0220F331F59
:101540000A94E2F7242B27BB2AE12A95F1F700C081
:10155000789427B30090020102C0880F991F0A9463
:10156000E2F78095822387BB82E98A95F1F700C074
:101570000895F89438B381E090E0AC010090020146
:1015800002C0440F551F0A94E2F7242F209523230D
:1015900028BB47B39C010090020102C0220F331FF9
:1015A0000A94E2F7242B27BB2DEA2A95F1F70000D5
:1015B00027B30090020102C0880F991F0A94E2F736
:1015C0008095822387BB78948DE08A95F1F700009F
:1015D0000895CF93DF93D82FC8E08D2F817097DFC8
:1015E000D695C150D1F7DF91CF910895F89438B3D3
:1015F00081E090E0AC010090020102C0440F551F51
:101600000A94E2F7242F2095232328BB47B39C019B
:101610000090020102C0220F331F0A94E2F7242B2C
:1016200027BB28E02A95F1F727B30090020102C0FA
:10163000880F991F0A94E2F78095822387BB8AE17D
:101640008A95F1F700C086B390E00090020102C0D5
:10165000959587950A94E2F78170789498E79A9522
:10166000F1F70895CF93DF93D8E0C0E0BFDF20E823
:10167000829FC0011124C695C82BD150B9F78C2F79
:10168000DF91CF910895BF92CF92DF92EF92FF92B8
:101690000F931F93CF93DF93C22FE32EF42E052FCA
:1016A000162FD72FB82EC92EF2DE85E592DF68946B
:1016B000DD24D6F88C2F81702ADF2C2F3E2D4F2D64
:1016C000502F612F7D2F8B2D9C2D01E037D3C22F02
:1016D000E32EF42E052F162FD72FB82EC92EDA940D
:1016E000D110E8CFDF91CF911F910F91FF90EF9034
:1016F000DF90CF90BF9008959F92AF92BF92CF920C
:10170000DF92EF92FF920F931F93CF93DF93922E6E
:10171000A32EB42EC52ED62EE72EF82E192FD02F9D
:10172000A0E0B0E0F0E0E0E0CCE8292D3A2D4B2D30
:101730005C2D6D2D7E2D8F2D912F0A2FFFD288E0ED
:1017400090E0322F3E27E695269530FDEC27019755
:10175000C1F7FF5F1896FD1740F38E2FDF91CF91F1
:101760001F910F91FF90EF90DF90CF90BF90AF90BF
:101770009F9008952F923F924F925F926F927F9227
:101780008F929F92AF92BF92CF92DF92EF92FF9291
:101790000F931F93CF93DF93CDB7DEB729970FB683
:1017A000F894DEBF0FBECDBF29833A834B835C83A1
:1017B0006D837E83382E9F83580169DE80EF09DFB9
:1017C000E12CF12C412C81E0512C612C712C812CCD
:1017D000912CC12CD12C10E022242394898706DF80
:1017E000888704DF9885913019F4813001F547C06E
:1017F000E885E1111CC081111AC0F5018081F985CD
:101800008F1781F08F1780F029813A814B815C819D
:101810006D817E81832D9F810E2D90D220FD06C08B
:101820004F2E05C0288603C0498401C0288628851C
:1018300030E040E050E060E070E080E090E00E2DAD
:1018400062D2522A632A742A852A962AC72AD82A5B
:10185000192B88855CDE89858F5F89879FEFE91A60
:10186000F90A813409F0BBCFF5014082252D362DD0
:10187000472D582D692D7C2D8D2D912F08C021E0ED
:1018800030E040E050E060E070E080E090E02996D9
:101890000FB6F894DEBF0FBECDBFDF91CF911F9181
:1018A0000F91FF90EF90DF90CF90BF90AF909F90FF
:1018B0008F907F906F905F904F903F902F90089502
:1018C0002F923F924F925F926F927F928F929F9250
:1018D000AF92BF92CF92DF92EF92FF920F931F933E
:1018E000CF93DF931F92CDB7DEB74C015B01198216
:1018F000312C212C412C512C612C712CC12CD12C40
:10190000E12CF12C01C0212C8E010F5F1F4F242DE3
:10191000352D462D572D6C2D7D2D8E2D9F2D2ADF9B
:10192000422E532E642E752EC62ED72EE82EF92E5B
:10193000A1E020D2B1F008E0DFDE811110C0F40197
:1019400088E0389EE00DF11D1124408251826282B0
:101950007382C482D582E682F782339408C02394CE
:1019600001C02394E3E0E21558F02110CDCF898126
:10197000882321F0F5018081381628F2F5013082A4
:101980000F90DF91CF911F910F91FF90EF90DF901B
:10199000CF90BF90AF909F908F907F906F905F900F
:1019A0004F903F902F9008955058BB27AA270ED0F4
:1019B0000DC1FED030F003D120F031F49F3F11F47F
:1019C0001EF4F3C00EF4E095E7FBE9C0E92F0FD158
:1019D00080F3BA17620773078407950718F071F44C
:1019E0009EF527C10EF4E0950B2EBA2FA02D0B010A
:1019F000B90190010C01CA01A0011124FF27591B54
:101A000099F0593F50F4503E68F11A16F040A22F59
:101A1000232F342F4427585FF3CF469537952795CA
:101A2000A795F0405395C9F77EF41F16BA0B620BC9
:101A3000730B840BBAF09150A1F0FF0FBB1F661F10
:101A4000771F881FC2F70EC0BA0F621F731F841F53
:101A500048F4879577956795B795F7959E3F08F079
:101A6000B3CF9395880F08F09927EE0F9795879538
:101A7000089571D008F481E0089504D06894B111FC
:101A8000D9C00895BCD088F09F5790F0B92F9927FE
:101A9000B751A0F0D1F0660F771F881F991F1AF079
:101AA000BA95C9F712C0B13081F0C3D0B1E0089542
:101AB000C0C0672F782F8827B85F39F0B93FCCF3C3
:101AC000869577956795B395D9F73EF4909580956F
:101AD000709561957F4F8F4F9F4F0895E89409C08F
:101AE00097FB3EF490958095709561957F4F8F4F51
:101AF0009F4F9923A9F0F92F96E9BB279395F69567
:101B0000879577956795B795F111F8CFFAF4BB0FE4
:101B100011F460FF1BC06F5F7F4F8F4F9F4F16C048
:101B2000882311F096E911C0772321F09EE8872FD2
:101B3000762F05C0662371F096E8862F70E060E08E
:101B40002AF09A95660F771F881FDAF7880F969507
:101B5000879597F90895990F0008550FAA0BE0E8AB
:101B6000FEEF16161706E807F907C0F0121613065F
:101B7000E407F50798F0621B730B840B950B39F49F
:101B80000A2661F0232B242B252B21F408950A2605
:101B900009F4A140A6958FEF811D811D089597F945
:101BA0009F6780E870E060E008959FEF80EC089503
:101BB00000240A941616170618060906089500242C
:101BC0000A9412161306140605060895092E0394A6
:101BD000000C11F4882352F0BB0F40F4BF2B11F41A
:101BE00060FF04C06F5F7F4F8F4F9F4F089557FD79
:101BF0009058440F551F59F05F3F71F04795880F7B
:101C000097FB991F61F09F3F79F087950895121611
:101C100013061406551FF2CF4695F1DF08C01616BD
:101C200017061806991FF1CF86957105610508946E
:101C30000895E894BB2766277727CB0197F9089585
:101C40000BD0C4CFB5DF28F0BADF18F0952309F028
:101C5000A6CFABCF1124EECFCADFA0F3959FD1F36F
:101C6000950F50E0551F629FF001729FBB27F00D4A
:101C7000B11D639FAA27F00DB11DAA1F649F66279F
:101C8000B00DA11D661F829F2227B00DA11D621FEE
:101C9000739FB00DA11D621F839FA00D611D221FA8
:101CA000749F3327A00D611D231F849F600D211D8C
:101CB000822F762F6A2F11249F5750408AF0E1F02F
:101CC00088234AF0EE0FFF1FBB1F661F771F881F78
:101CD00091505040A9F79E3F510570F060CFAACFB8
:101CE0005F3FECF3983EDCF3869577956795B79563
:101CF000F795E7959F5FC1F7FE2B880F911D96958D
:101D0000879597F908950F93083090F0982F872FB3
:101D1000762F652F542F432F322F22270850F4CFD0
:101D2000220F331F441F551F661F771F881F991FDF
:101D30000A95B2F70F91089597FB10F816940008D2
:101D40000F93083098F00850232F342F452F562F2B
:101D5000672F782F892F902DF4CF0594979587952D
:101D60007795679557954795379527950A95AAF7DB
:101D70000F9108950024A7FD00942A17300540050F
:101D80005005600570058005900508951F93FC01BE
:101D900099278827BC01E89411911032E9F3193092
:101DA00010F01E30C8F31B3249F01D3241F4689424
:101DB00005C027D0610F711D811D911D1191105318
:101DC0001A30B8F33EF490958095709561957F4FE9
:101DD0008F4F9F4F1F910895FB01DC010D90002054
:101DE000E9F7119701900D920020E1F70895BB27C4
:101DF0004A3031F4992322F4BDE2909581959F4FAA
:101E000037C0592F482F372F262F660F771F881F6F
:101E1000991F660F771F881F991F620F731F841FFA
:101E2000951F660F771F881F991F0895BB27FA011A
:101E3000A62F6217710581059105330B30FB66F003
:101E4000AA27660F771F881F991FAA1FA21710F0D5
:101E5000A21B63953850A9F7A05DAA3308F0A95DCD
:101E6000A19336F7B111B1931082CA0119C0BB27F3
:101E7000FB015527AA27880F991FAA1FA41710F046
:101E8000A41B83955051B9F7A05DAA3308F0A95D52
:101E9000A193009779F7B111B1931192CB0100C0D2
:101EA000DC01FC01672F71917723E1F7329704C0C1
:101EB0007C916D9370836291AE17BF07C8F308954C
:101EC000E199FECF9FBB8EBBE09A99278DB3089511
:101ED000A6E1B0E044E050E017C0262FE199FECF24
:101EE0009FBB8EBB2DBB0FB6F894E29AE19A0FBE52
:101EF00001960895242FF2DF252FF0DF00C0EDDFDB
:101F0000272FECCFDC01CB01FC01E199FECF06C00D
:101F1000FFBBEEBBE09A31960DB20D92415050409E
:081F2000B8F70895F894FFCF13
:101F2800FEFDFBF72F285E2D5E292F002D285E2D44
:101F38005E292D0048656C6C6F2100436F64653A1B
:101F4800003E002E2E2E2E002A3A4C697374002370
:101F58003A4164642F44656C2F4368616E6765007D
:101F68002A3A4368616E676500303A4164642031FB
:101F78003A44656C657465004368616E6765640022
:101F880044656C65746564004164646564004E6F03
:101F98002E002A3A4E65787400436F64652D00461A
:101FA8006F756E6400636F64657300556E6C6F6364
:101FB8006B65640056616C75657320726573657432
:021FC800000017
:00000001FF
